{
  "contractName": "Certificacion",
  "abi": [
    {
      "constant": false,
      "inputs": [
        {
          "name": "id",
          "type": "uint256"
        },
        {
          "name": "tema",
          "type": "string"
        },
        {
          "name": "fecha",
          "type": "string"
        }
      ],
      "name": "registrarReunion",
      "outputs": [],
      "payable": false,
      "stateMutability": "nonpayable",
      "type": "function"
    },
    {
      "constant": false,
      "inputs": [
        {
          "name": "reunionid",
          "type": "uint256"
        },
        {
          "name": "hash",
          "type": "string"
        },
        {
          "name": "url",
          "type": "string"
        }
      ],
      "name": "agregarFotos",
      "outputs": [],
      "payable": false,
      "stateMutability": "nonpayable",
      "type": "function"
    },
    {
      "constant": true,
      "inputs": [
        {
          "name": "idreunion",
          "type": "uint256"
        }
      ],
      "name": "consultarReunion",
      "outputs": [
        {
          "name": "",
          "type": "string"
        },
        {
          "name": "",
          "type": "string"
        }
      ],
      "payable": false,
      "stateMutability": "view",
      "type": "function"
    },
    {
      "constant": true,
      "inputs": [
        {
          "name": "idreunion",
          "type": "uint256"
        }
      ],
      "name": "consultarFotosReunion",
      "outputs": [
        {
          "name": "",
          "type": "uint256"
        }
      ],
      "payable": false,
      "stateMutability": "view",
      "type": "function"
    },
    {
      "constant": true,
      "inputs": [
        {
          "name": "idreunion",
          "type": "uint256"
        },
        {
          "name": "fotoid",
          "type": "uint256"
        }
      ],
      "name": "consultarFoto",
      "outputs": [
        {
          "name": "",
          "type": "string"
        },
        {
          "name": "",
          "type": "string"
        }
      ],
      "payable": false,
      "stateMutability": "view",
      "type": "function"
    },
    {
      "constant": true,
      "inputs": [
        {
          "name": "idreunion",
          "type": "uint256"
        },
        {
          "name": "fotoid",
          "type": "uint256"
        },
        {
          "name": "hashNuevo",
          "type": "string"
        }
      ],
      "name": "validarFoto",
      "outputs": [
        {
          "name": "",
          "type": "bool"
        }
      ],
      "payable": false,
      "stateMutability": "view",
      "type": "function"
    }
  ],
  "bytecode": "0x608060405234801561001057600080fd5b50610f7c806100206000396000f3fe608060405234801561001057600080fd5b50600436106100625760003560e01c8063254e76e5146100675780633a7a785f146101c35780634ee2df5f146102055780639b98a721146102ec5780639fadb601146103ff578063db6a26971461051c575b600080fd5b6101c16004803603606081101561007d57600080fd5b8101908080359060200190929190803590602001906401000000008111156100a457600080fd5b8201836020820111156100b657600080fd5b803590602001918460018302840111640100000000831117156100d857600080fd5b91908080601f016020809104026020016040519081016040528093929190818152602001838380828437600081840152601f19601f8201169050808301925050505050505091929192908035906020019064010000000081111561013b57600080fd5b82018360208201111561014d57600080fd5b8035906020019184600183028401116401000000008311171561016f57600080fd5b91908080601f016020809104026020016040519081016040528093929190818152602001838380828437600081840152601f19601f820116905080830192505050505050509192919290505050610678565b005b6101ef600480360360208110156101d957600080fd5b81019080803590602001909291905050506106eb565b6040518082815260200191505060405180910390f35b6102d26004803603606081101561021b57600080fd5b8101908080359060200190929190803590602001909291908035906020019064010000000081111561024c57600080fd5b82018360208201111561025e57600080fd5b8035906020019184600183028401116401000000008311171561028057600080fd5b91908080601f016020809104026020016040519081016040528093929190818152602001838380828437600081840152601f19601f82011690508083019250505050505050919291929050505061070d565b604051808215151515815260200191505060405180910390f35b6103186004803603602081101561030257600080fd5b81019080803590602001909291905050506109c4565b604051808060200180602001838103835285818151815260200191508051906020019080838360005b8381101561035c578082015181840152602081019050610341565b50505050905090810190601f1680156103895780820380516001836020036101000a031916815260200191505b50838103825284818151815260200191508051906020019080838360005b838110156103c25780820151818401526020810190506103a7565b50505050905090810190601f1680156103ef5780820380516001836020036101000a031916815260200191505b5094505050505060405180910390f35b6104356004803603604081101561041557600080fd5b810190808035906020019092919080359060200190929190505050610b32565b604051808060200180602001838103835285818151815260200191508051906020019080838360005b8381101561047957808201518184015260208101905061045e565b50505050905090810190601f1680156104a65780820380516001836020036101000a031916815260200191505b50838103825284818151815260200191508051906020019080838360005b838110156104df5780820151818401526020810190506104c4565b50505050905090810190601f16801561050c5780820380516001836020036101000a031916815260200191505b5094505050505060405180910390f35b6106766004803603606081101561053257600080fd5b81019080803590602001909291908035906020019064010000000081111561055957600080fd5b82018360208201111561056b57600080fd5b8035906020019184600183028401116401000000008311171561058d57600080fd5b91908080601f016020809104026020016040519081016040528093929190818152602001838380828437600081840152601f19601f820116905080830192505050505050509192919290803590602001906401000000008111156105f057600080fd5b82018360208201111561060257600080fd5b8035906020019184600183028401116401000000008311171561062457600080fd5b91908080601f016020809104026020016040519081016040528093929190818152602001838380828437600081840152601f19601f820116905080830192505050505050509192919290505050610d6e565b005b82600080858152602001908152602001600020600001819055508160008085815260200190815260200160002060010190805190602001906106bb929190610e11565b508060008085815260200190815260200160002060020190805190602001906106e5929190610e11565b50505050565b6000806000838152602001908152602001600020600301805490509050919050565b6000806000858152602001908152602001600020600301805490508310156109b857610737610e91565b600080868152602001908152602001600020600301848154811061075757fe5b9060005260206000209060020201604051806040016040529081600082018054600181600116156101000203166002900480601f0160208091040260200160405190810160405280929190818152602001828054600181600116156101000203166002900480156108095780601f106107de57610100808354040283529160200191610809565b820191906000526020600020905b8154815290600101906020018083116107ec57829003601f168201915b50505050508152602001600182018054600181600116156101000203166002900480601f0160208091040260200160405190810160405280929190818152602001828054600181600116156101000203166002900480156108ab5780601f10610880576101008083540402835291602001916108ab565b820191906000526020600020905b81548152906001019060200180831161088e57829003601f168201915b505050505081525050905080600001516040516020018082805190602001908083835b602083106108f157805182526020820191506020810190506020830392506108ce565b6001836020036101000a03801982511681845116808217855250505050505090500191505060405160208183030381529060405280519060200120836040516020018082805190602001908083835b602083106109635780518252602082019150602081019050602083039250610940565b6001836020036101000a0380198251168184511680821785525050505050509050019150506040516020818303038152906040528051906020012014156109ae5760019150506109bd565b60009150506109bd565b600090505b9392505050565b606080600080848152602001908152602001600020600101600080858152602001908152602001600020600201818054600181600116156101000203166002900480601f016020809104026020016040519081016040528092919081815260200182805460018160011615610100020316600290048015610a865780601f10610a5b57610100808354040283529160200191610a86565b820191906000526020600020905b815481529060010190602001808311610a6957829003601f168201915b50505050509150808054600181600116156101000203166002900480601f016020809104026020016040519081016040528092919081815260200182805460018160011615610100020316600290048015610b225780601f10610af757610100808354040283529160200191610b22565b820191906000526020600020905b815481529060010190602001808311610b0557829003601f168201915b5050505050905091509150915091565b60608060008085815260200190815260200160002060030180549050831015610cf657610b5d610e91565b6000808681526020019081526020016000206003018481548110610b7d57fe5b9060005260206000209060020201604051806040016040529081600082018054600181600116156101000203166002900480601f016020809104026020016040519081016040528092919081815260200182805460018160011615610100020316600290048015610c2f5780601f10610c0457610100808354040283529160200191610c2f565b820191906000526020600020905b815481529060010190602001808311610c1257829003601f168201915b50505050508152602001600182018054600181600116156101000203166002900480601f016020809104026020016040519081016040528092919081815260200182805460018160011615610100020316600290048015610cd15780601f10610ca657610100808354040283529160200191610cd1565b820191906000526020600020905b815481529060010190602001808311610cb457829003601f168201915b5050505050815250509050806000015181602001518191508090509250925050610d67565b6040518060400160405280600581526020017f4572726f720000000000000000000000000000000000000000000000000000008152506040518060400160405280600581526020017f4572726f72000000000000000000000000000000000000000000000000000000815250915091505b9250929050565b610d76610e91565b604051806040016040528084815260200183815250905060008085815260200190815260200160002060030181908060018154018082558091505090600182039060005260206000209060020201600090919290919091506000820151816000019080519060200190610dea929190610eab565b506020820151816001019080519060200190610e07929190610eab565b5050505050505050565b828054600181600116156101000203166002900490600052602060002090601f016020900481019282601f10610e5257805160ff1916838001178555610e80565b82800160010185558215610e80579182015b82811115610e7f578251825591602001919060010190610e64565b5b509050610e8d9190610f2b565b5090565b604051806040016040528060608152602001606081525090565b828054600181600116156101000203166002900490600052602060002090601f016020900481019282601f10610eec57805160ff1916838001178555610f1a565b82800160010185558215610f1a579182015b82811115610f19578251825591602001919060010190610efe565b5b509050610f279190610f2b565b5090565b610f4d91905b80821115610f49576000816000905550600101610f31565b5090565b9056fea165627a7a72305820ae72cd806884440995e6fd45010ec391eea54956cad16d5aeee76c75cd6893bb0029",
  "source": "pragma solidity ^0.5.0;\r\n\r\ncontract Certificacion {\r\n    \r\n    struct Foto {\r\n        string hash;\r\n        string url;\r\n    }\r\n    \r\n    struct Reunion {\r\n        uint id;\r\n        string tema;\r\n        string fecha;\r\n        Foto[] fotos;\r\n    }\r\n    \r\n    mapping (uint => Reunion) reuniones;\r\n    \r\n    function registrarReunion(uint id, string memory tema, string memory fecha) public {\r\n        reuniones[id].id=id;\r\n        reuniones[id].tema=tema;\r\n        reuniones[id].fecha=fecha;\r\n    }\r\n    \r\n    function agregarFotos(uint reunionid, string memory hash, string memory url) public {\r\n        Foto memory foto = Foto(hash, url);\r\n        reuniones[reunionid].fotos.push(foto);\r\n    }\r\n    \r\n    \r\n    function consultarReunion(uint idreunion) public view returns (string memory, string memory) {\r\n        return (reuniones[idreunion].tema, reuniones[idreunion].fecha);\r\n    }\r\n    \r\n    function consultarFotosReunion(uint idreunion) public view returns (uint) {\r\n        return (reuniones[idreunion].fotos.length);\r\n    }\r\n    \r\n    function consultarFoto(uint idreunion, uint fotoid) public view returns (string memory, string memory) {\r\n        if (fotoid <  reuniones[idreunion].fotos.length) {\r\n            Foto memory foto = reuniones[idreunion].fotos[fotoid];\r\n            return (foto.hash, foto.url);\r\n        } else {\r\n            return (\"Error\", \"Error\");\r\n        }\r\n    }\r\n    \r\n    function validarFoto(uint idreunion, uint fotoid, string memory hashNuevo) public view returns (bool) {\r\n        if (fotoid <  reuniones[idreunion].fotos.length) {\r\n            Foto memory foto = reuniones[idreunion].fotos[fotoid];\r\n            if (keccak256(abi.encodePacked((hashNuevo))) == keccak256(abi.encodePacked((foto.hash))) ) {\r\n                return true;\r\n            } else {\r\n                return false;\r\n            }\r\n        } else {\r\n            return false;\r\n        }\r\n    }  \r\n    \r\n}",
  "sourcePath": "C:/Users/saryc/OneDrive/Documentos/Universidad/Semestre 9/BlockChain/Proyectos/Certificacion/contracts/Certificacion.sol",
  "compiler": {
    "name": "solc",
    "version": "0.5.8+commit.23d335f2.Emscripten.clang"
  },
  "schemaVersion": "3.0.12",
  "updatedAt": "2019-08-16T13:21:46.564Z",
  "devdoc": {
    "methods": {}
  },
  "userdoc": {
    "methods": {}
  }
}